:020000040800F2
:10000000F80400209D01000821150008991400083B
:100010001D150008E5010008351C0008000000005F
:100020000000000000000000000000005F15000854
:10003000E9010008000000005D15000861150008D6
:10004000B7010008B7010008B7010008B7010008B0
:10005000B7010008B7010008B7010008B7010008A0
:10006000B7010008B7010008B7010008B701000890
:10007000B7010008B7010008B7010008B701000880
:10008000B7010008B7010008B7010008B701000870
:10009000B7010008B7010008B7010008ED0100082A
:1000A000B7010008B7010008B7010008B701000850
:1000B000B7010008B7010008B7010008B701000840
:1000C000B7010008B7010008B7010008B701000830
:1000D000B7010008B7010008B7010008B701000820
:1000E000B7010008B7010008B7010008B701000810
:1000F000B7010008B7010008B7010008B701000800
:10010000B7010008B7010008B7010008B7010008EF
:1001100095160008B7010008B7010008B7010008EC
:10012000B7010008B7010008B7010008B7010008CF
:10013000B7010008B7010008B7010008B7010008BF
:10014000B7010008B7010008B7010008B7010008AF
:10015000B7010008B7010008B7010008B70100089F
:10016000B7010008B7010008B7010008B70100088F
:10017000B7010008B7010008B7010008000000003F
:10018000B7010008B7010008DFF80CD000F018F83C
:100190000048004785200008F804002006488047F2
:1001A00006480047FEE7FEE7FEE7FEE7FEE7FEE75C
:1001B000FEE7FEE7FEE7FEE73116000889010008CA
:1001C000064C074D06E0E06840F0010394E80700A4
:1001D00098471034AC42F6D3FFF7DAFF1426000834
:1001E0003426000800BFFEE77047000040200349A6
:1001F000086001200249086070470000143C01407B
:100200004000002070B50446002600250CB90120EE
:1002100070BD94F83C0028B9002084F83D002046C9
:1002200000F0CEF8022084F83C002068006820F03E
:100230000200216808602068006840F00100216821
:10024000086000F07DFB05460EE000F079FB401BE6
:100250000A2809D9032084F83C0000BF002084F854
:100260003D0000BF0320D3E72068406800F0010094
:100270000028EAD02068406800F00100002875D00E
:10028000A069012806D12068006840F0800021683C
:10029000086005E02068006820F0800021680860A0
:1002A000E069012806D12068006840F0400021681C
:1002B000086005E02068006820F0400021680860C0
:1002C000206A012806D12068006840F020002168DB
:1002D000086005E02068006820F0200021680860C0
:1002E000606A012806D12068006840F0100021688B
:1002F000086005E02068006820F0100021680860B0
:10030000A06A012806D12068006840F00800216832
:10031000086005E02068006820F008002168086097
:10032000E06A012806D12068006840F004002168D6
:10033000086005E02068006820F00400216808607B
:10034000D4E90201084321690843616908436168EF
:10035000491E08432168C8612068006820F0010038
:100360002168086000F0ECFA05460FE01AE000F0A2
:10037000E7FA401B0A2809D9032084F83C0000BF93
:10038000002084F83D0000BF032041E7206840685A
:1003900000F001000028EAD12068406800F0010068
:1003A00000B90126012E06D100202064012084F826
:1003B0003C0000202CE7042084F83C00012027E7C3
:1003C00010B586B004461B492068884230D100BF72
:1003D000002000901848006840F00070164908603E
:1003E0000846006800F00070009000BF00BF00BF2A
:1003F0000020009010481038006840F002000E49BC
:10040000103908600846006800F00200009000BF44
:1004100000BF4FF440700190022002900020039032
:10042000032004900920059001A9044800F088F9F0
:1004300006B010BD00640040403802400004024095
:100440002DE9F04104460E46042500272068806807
:1004500000F08060B0F1806F0DD02068806800F0FF
:100460000060B0F1006F06D02068806800F0805016
:10047000B0F1805F7DD100BF94F83D00012802D12A
:100480000220BDE8F081012084F83D0000BF94F80F
:100490003C00222804D0322806D062280CD107E084
:1004A000422084F83C000BE0522084F83C0007E036
:1004B000722084F83C0003E0122084F83C0000BF66
:1004C00000BF2068806800F08060B0F1806F01D1CB
:1004D000002509E02068806800F00060B0F1006F3E
:1004E00001D1012500E00225206800F5C07000EB75
:1004F0000510006800F00101206800F5C07000EBF5
:1005000005100160206B806898B9206800F5C07004
:1005100000EB05100068216BC968226B128841EA64
:1005200042510843216801F5C07101EB05110860D3
:1005300015E0206800F5C07000EB05100068216B25
:100540008968226B526841EAC201226BD26811436A
:100550000143206800F5C07000EB05100160206BBE
:10056000007C00F00F00216B0861206800F5C0706E
:1005700000E0B6E000EB0510406820F00F012068B5
:1005800000F5C07000EB05104160206800F5C070F8
:1005900000EB05104068216B09690843216801F5EB
:1005A000C07101EB05114860206BC07D0106206B16
:1005B000807D41EA0041206B407D41EA0020216BB3
:1005C000097D0843216801F5C07101EB05118860C0
:1005D000206BC07E0106206B807E41EA0041206BCB
:1005E000407E41EA0021206B007E0143206800F537
:1005F000C07000EB0510C160206800F5C07000EB12
:100600000510006840F00101206800F5C07000EBA3
:100610000510016000F094F9074620E0701CF0B16D
:1006200026B100F08DF9C01BB04218D9032084F820
:100630003C001DB980202168886009E0012D03D1AC
:10064000E8032168886003E04FF4000021688860B7
:1006500000BF002084F83D0000BF032011E74DB922
:100660002068806821490840884201D1012016E0B5
:10067000002014E0012D09D1206880681C49084041
:10068000884201D101200AE0002008E0206880684B
:1006900018490840884201D1012000E000200028CC
:1006A000BCD094F83C00422804D0522806D07228CE
:1006B0000CD107E0222084F83C000BE0322084F8C3
:1006C0003C0007E0622084F83C0003E0012084F84D
:1006D0003C0000BF00BF00BF002084F83D0000BF09
:1006E000CFE6042084F83C000120CAE603000004A1
:1006F0000003000800000310014691F835000228AD
:1007000003D08020486501207047052081F835001E
:100710000868006820F001000A6810600020F3E714
:1007200031B500F00DF90546009C601C00B1641C59
:1007300000BF00F005F9401BA042FAD338BD00000D
:10074000F8B502460B460025002400200021DCE01D
:10075000012606FA01F51E6806EA0504AC4273D1CB
:100760005E68022E02D05E68122E13D1CF0802F10D
:10077000200656F827004E07F70E0F26BE40B0435E
:100780004F07FF0E1E69BE403043CF0802F120061E
:1007900046F8270010684F000326BE40B0431E797C
:1007A00006F003064F00BE40304310605E68012E25
:1007B00008D05E68022E05D05E68112E02D05E68F9
:1007C000122E13D190684F000326BE40B0434F0055
:1007D000DE68BE4030439060506801268E40B043D2
:1007E0001E79C6F300168E4030435060D0684F002B
:1007F0000326BE40B0434F009E68BE403043D060E9
:100800005E6806F08056B6F1805F7DD100BF00269D
:100810000096404E366846F480463E4F3E603E4667
:10082000366806F48046009600BF00BF3A4E8F0837
:1008300056F827008E07370F0F26BE40B043374EBD
:10084000B24202D1002624E05EE0354EB24201D130
:1008500001261EE0334EB24201D1022619E0324E8B
:10086000B24201D1032614E0304EB24201D1042637
:100870000FE02F4EB24201D105260AE02D4EB242C2
:1008800001D1062605E02C4EB24201D1072600E038
:1008900008268F073F0FBE4030431F4E8F0846F893
:1008A0002700264E3068A0435E6806F48036B6F511
:1008B000803F00D12043214E3060361D3068A04378
:1008C0005E6806F40036B6F5003F00D120431B4EAB
:1008D000361D3060361D3068A0435E6806F4801611
:1008E000B6F5801F00D12043144E08363060361D07
:1008F0003068A0435E6806F40016B6F5001F00D10C
:1009000020430E4E0C363060491C1029FFF420AFF6
:10091000F8BD0000443802400838014000000240A1
:100920000004024000080240000C02400010024097
:100930000014024000180240001C0240003C01402C
:10094000014800687047000000000020024800686D
:10095000401C0149086070470000002010B50D4898
:10096000006840F400700B4908600846006840F4D5
:10097000806008600846006840F4807008600320CA
:1009800000F094F8002000F007F800F019F80020BB
:1009900010BD0000003C024070B5044607480068E6
:1009A0004FF47A71B0FBF1F5284600F042FC0022CA
:1009B0002146501E00F03CF8002070BD440000208D
:1009C00010B5032000F072F8002211466FF00B0002
:1009D00000F02EF8002211466FF00A0000F028F80F
:1009E000002211466FF0090000F022F800221146A3
:1009F000501F00F01DF800221146101F00F018F8DB
:100A000000221146901E00F013F800221146501EDD
:100A100000F00EF810BD00BF00F01F020121914050
:100A20004209920002F1E022C2F8001100BF7047B3
:100A30002DE9F05F80460D461646002700F072FD56
:100A4000074639462A46334601F00700C0F1070A37
:100A5000BAF1040F02D94FF0040A01E0C0F1070A0D
:100A6000D14600F1040ABAF1070F02D24FF0000A92
:100A700001E0A0F1030AD4464FF0010A0AFA09FA8C
:100A8000AAF1010A0AEA020A0AFA0CFA4FF0010B6B
:100A90000BFA0CFBABF1010B0BEA030B4AEA0B045C
:100AA0002146404600F046FDBDE8F09F00BF00F043
:100AB0000702064B19684FF6FF031940044B0B431E
:100AC00043EA0221014B196000BF70470CED00E0C2
:100AD0000000FA0570B504460D4600266D48006812
:100AE00000F00F00A84209D26A490D70084600685C
:100AF00000F00F00A84201D0012070BD207800F066
:100B00000200022807D16448006820F0F000A168C4
:100B1000084361490860207800F00100002877D080
:100B20006068012807D15C4808380068C0F340407D
:100B3000B8B90120E1E76068022802D060680328A4
:100B400007D1554808380068C0F3406048B9012013
:100B5000D3E7514808380068C0F3400008B90120C5
:100B6000CBE74D48006820F00300616808434A491C
:100B70000860FFF7E5FE06466068012810D108E02E
:100B8000FFF7DEFE801B41F28831884201D9032045
:100B9000B3E74148006800F00C000428F0D137E0CA
:100BA0006068022810D108E0FFF7CAFE801B41F2FE
:100BB0008831884201D903209FE73748006800F058
:100BC0000C000828F0D123E06068032810D108E069
:100BD000FFF7B6FE801B41F28831884201D903201D
:100BE0008BE72D48006800F00C000C28F0D10FE0D6
:100BF00008E0FFF7A5FE801B41F28831884201D949
:100C000003207AE72448006800F00C000028F0D1A7
:100C10002048006800F00F00A84209D91D490D7056
:100C20000846006800F00F00A84201D0012064E7E8
:100C3000207800F00400042807D11748006820F449
:100C4000E050E168084314490860207800F008008B
:100C5000082808D11048006820F46040216940EA63
:100C6000C1000D49086000F04FF80B49096801F018
:100C7000F001F02292FAA2F2B2FA82F2D140074ACF
:100C8000515CC840064908600020FFF785FE00203F
:100C900033E70000003C024008380240FC25000811
:100CA0004400002001480068704700004400002014
:100CB00000B5FFF7F7FF0749096801F4E0514FF469
:100CC000E05292FAA2F2B2FA82F2D140024A515CA8
:100CD000C84000BD083802400C26000800B5FFF7E8
:100CE000E1FF0749096801F460414FF4604292FA5C
:100CF000A2F2B2FA82F2D140024A515CC84000BD71
:100D0000083802400C26000870B50021002200239C
:100D10000020274C246804F00C0424B1042C04D0D7
:100D2000082C41D103E0234840E023483EE0204C1A
:100D3000241F246804F03F011D4C241F246804F480
:100D4000800484B11C4CB4FBF1F5194C241F2468B9
:100D500047F6C076344096FAA6F6B6FA86F6F44020
:100D600005FB04F20FE0134CB4FBF1F5104C241F0B
:100D7000246847F6C076344096FAA6F6B6FA86F6A8
:100D8000F44005FB04F20A4C241F246804F44034A8
:100D90004FF4403595FAA5F5B5FA85F5EC40641C9D
:100DA0006300B2FBF3F001E0024800BF00BF70BD7A
:100DB000083802400024F40040787D0138B504462C
:100DC0000025207800F00100002874D0F748006862
:100DD00000F00C0004280DD0F448006800F00C006E
:100DE000082813D1F148001F006800F48000B0F516
:100DF000800F0BD1ED4808380068C0F34040002850
:100E000059D06068002856D1012038BD00BF606805
:100E1000B0F5803F08D1E5480838006840F48030DC
:100E2000E249083908601EE06068B0F5A02F0DD1D6
:100E3000DE480838006840F48020DC490839086042
:100E40000846006840F4803008600CE0D748083855
:100E5000006820F48030D5490839086008460068E9
:100E600020F48020086000BF606890B1FFF768FD43
:100E7000054606E0FFF764FD401B642801D9032006
:100E8000C3E7CA4808380068C0F340400028F1D0E2
:100E900011E0FFF755FD054606E0FFF751FD401B49
:100EA000642801D90320B0E7C04808380068C0F3BF
:100EB00040400028F1D1207800F00200022869D1DA
:100EC000BA48006800F00C0058B1B848006800F05B
:100ED0000C00082821D1B548001F006800F48000EC
:100EE000D8B9B24808380068C0F3400020B1E068C3
:100EF000012801D0012088E7AC480838006820F0BC
:100F0000F800F82292FAA2F2B2FA82F22169914034
:100F10000843A649083908603CE0E06828B301208E
:100F2000A3490860FFF70CFD054606E0FFF708FD42
:100F3000401B022801D9032067E79C480838006855
:100F4000C0F340000028F1D098480838006820F02D
:100F5000F800F82292FAA2F2B2FA82F221699140E4
:100F6000084392490839086014E00020904908605D
:100F7000FFF7E6FC054606E0FFF7E2FC401B02280F
:100F800001D9032041E7894808380068C0F34000D0
:100F90000028F1D1207800F0080008282CD16069E1
:100FA000A8B1012083490860FFF7CAFC054606E0A6
:100FB000FFF7C6FC401B022801D9032025E77B4828
:100FC0006C300068C0F340000028F1D014E000202D
:100FD00078490860FFF7B4FC054606E0FFF7B0FC6F
:100FE000401B022801D903200FE770486C300068CD
:100FF000C0F340000028F1D1207800F0040004285C
:101000007FD100BF0020009068483830006840F071
:1010100080506649383108600846006800F080500A
:10102000009000BF00BF6448006840F480706249CF
:101030000860FFF785FC054606E0FFF781FC401BD2
:10104000022801D90320E0E65B48006800F48070C4
:101050000028F2D000BFA068012808D153486830AA
:10106000006840F001005149683108601DE0A06847
:1010700005280DD14D486830006840F004004B4908
:10108000683108600846006840F0010008600CE024
:1010900046486830006820F0010044496831086023
:1010A0000846006820F00400086000BFA068A0B1F6
:1010B000FFF746FC054608E0FFF742FC401B41F203
:1010C0008831884201D903209FE63848683000689B
:1010D000C0F340000028EFD013E0FFF731FC0546D5
:1010E00008E0FFF72DFC401B41F28831884201D90E
:1010F00003208AE62D4868300068C0F340000028CD
:10110000EFD1A069F0B32948006800F00C0008286E
:1011100071D0A069022858D1002025490866FFF740
:101120000FFC054606E0FFF70BFC401B022801D927
:1011300003206AE61D4808380068C0F340600028B4
:10114000F1D1D4E90701084347F6C07292FAA2F23E
:10115000B2FA82F2616A914008430122A16AC2EBAD
:1011600051014FF4403292FAA2F2B2FA82F2914067
:1011700008434FF0706292FAA2F2B2FA82F2E16A88
:10118000914000E039E008430849091F0860012048
:1011900007490866FFF7D4FB05460FE0FFF7D0FBD1
:1011A000401B02280AD903202FE60000083802401D
:1011B00000004742800E474200700040104800681F
:1011C000C0F340600028E9D017E000200D49086610
:1011D000FFF7B6FB054606E0FFF7B2FB401B02280F
:1011E00001D9032011E606480068C0F340600028DA
:1011F000F2D102E0FFE7012007E6002005E600004B
:101200000038024000004742042808D14FF0E02196
:10121000096941F004014FF0E022116107E04FF04D
:10122000E021096921F004014FF0E02211617047CB
:10123000704770B504462546681EB0F1807F01D323
:1012400001200FE0681E4FF0E02148610F214FF0B0
:10125000FF3000F06FF900204FF0E0218861072097
:101260000861002070BD10B5FFF7E2FF10BD7047A8
:101270002DE9F0470446206805682068C6682068A4
:1012800047694FF00008C14605F00F08B8F1000F9C
:101290000AD105F0200038B106F0200020B1204628
:1012A00000F092FABDE8F087B8F1000F6DD007F0BA
:1012B000010018B906F49070002866D005F001000E
:1012C00030B106F4807018B1E06B40F00100E063CB
:1012D00005F0040030B107F0010018B1E06B40F0F8
:1012E0000200E06305F0020030B107F0010018B120
:1012F000E06B40F00400E06305F0080030B107F057
:10130000010018B1E06B40F00800E063E06B68B3E7
:1013100005F0200028B106F0200010B1204600F0B2
:1013200053FA20684069C0F38019E06B00F00800B0
:1013300010B9B9F1000F22D0204600F025FA20683C
:10134000406900F04000B0B12068406920F04000E2
:1013500021684861606B50B11748616B0865606B2C
:10136000FFF7CAF910B1606B016D88470CE02046A9
:10137000FFF77DFF08E02046FFF779FF04E02046F5
:10138000FFF775FF0020E0638CE705F0800030B1C7
:1013900006F0800018B1204600F018FC82E705F046
:1013A000400030B106F0400018B1204600F0FCF9D2
:1013B00078E700BF76E700007517000810B504460F
:1013C0000CB9012010BDA06900B100E000BF94F885
:1013D000390028B9002084F83800204600F027F8AA
:1013E000242084F839002068C06820F40050216867
:1013F000C860204600F036FA2068006920F490406A
:10140000216808612068406920F02A00216848614D
:101410002068C06840F400502168C8600020E06384
:10142000202084F8390084F83A000020CAE7704789
:1014300010B5034693F83A00202829D101B10AB922
:10144000012010BD00BF93F83800012801D102200F
:10145000F7E7012083F8380000BF99629A85DA85A2
:101460000020D863222083F83A0000BF002083F8D0
:10147000380000BF1868406940F001001C686061D6
:101480001868C06840F490701C68E0600020D8E7DD
:101490000220D6E77047704700BFFEE710B50F483F
:1014A0000F4908600420486000210D488160C16038
:1014B0004FF4403101614FF400114161002181611D
:1014C000C161016241628162C162FEF79BFE20B18F
:1014D00040F2191103A000F0AFFB10BD0064004002
:1014E000480000202E2E2F5372632F6D61696E2EDF
:1014F0006300000008B500BF0020009006480068A7
:1015000040F00200044908600846006800F002004C
:10151000009000BF00BF08BD3038024000BFFEE7AA
:101520007047000002480068C0F3022070470000C6
:101530000CED00E010B5002807DA0A07140E054A82
:1015400000F00F031B1FD45403E00A07130E024AD6
:10155000135410BD18ED00E000E400E07047704740
:1015600010B5FFF7F3F9FFF77EFE10BD10B592B08E
:1015700000BF002000902848006840F080502649B5
:1015800008600846006800F08050009000BF00BF6F
:1015900000BF002000902148006840F480401F49AF
:1015A00008600846006800F48040009000BF00BF5B
:1015B000022006900120099010200A9000200C9033
:1015C00006A8FFF7FBFB18B1EA2115A000F034FBD9
:1015D0000F200190002002900390049005900021BC
:1015E00001A8FFF777FA18B1F8210DA000F024FB4D
:1015F000FFF758FB4FF47A71B0FBF1F42046FFF788
:1016000018FE0420FFF700FE00221146501EFFF7CF
:101610000FFA12B010BD00004038024000700040C8
:101620002E2E2F5372632F6D61696E2E63000000A2
:101630001448006840F470001249086012480068BD
:1016400040F001001049086000200F49083108608F
:101650000D4800680D4908400B4908600C48091DF9
:101660000860081F006820F48020091F086000201F
:1016700005490C3108604FF000600249803908606C
:101680007047000088ED00E000380240FFFFF6FEE2
:101690001030002410B52C48FFF7EAFD2B480078E5
:1016A0007A2841D00CDC3D283AD004DC0F282FD01A
:1016B0001F283DD118E03E2822D03F2838D10BE02A
:1016C0007B38052834D2DFE800F0271F130B030016
:1016D00001201F49086030E002201D4908602CE00D
:1016E00003201B49086028E004201949086024E011
:1016F0000520174908601749174800F0AEFA1CE0AA
:1017000006201349086018E007201149086014E01A
:1017100008200F49086010E009200D4908600CE01E
:101720000A200B49086008E00B200949086004E022
:101730004FF0FF300649086000BF00BF0122034997
:101740000148FFF775FE10BD8C0000203500002019
:1017500040000020050000204800002070B505462C
:101760000C46284600F05CFC204600F01BFC00F014
:101770004DFC70BD70B50546AC6B0020E085E08483
:101780002046FFF774FD70BD0168C96821F49071AF
:101790000268D1600168496921F001010268516164
:1017A000202180F83A10704710B504462068C068C0
:1017B00020F040002168C860202084F839002046CD
:1017C000FFF769FE002010BD70B5044694F83A009A
:1017D000222844D1A068B0F5805F13D1A56A2069A2
:1017E00040B920684068C0F308002880A06A801CC7
:1017F000A06219E020684068C0B22880A06A401C3E
:10180000A06211E0206938B920684068C1B2A26ABC
:10181000501CA062117007E02068406800F07F0152
:10182000A26A501CA0621170E08D401E80B2E0855B
:1018300098B92068C06820F490702168C86020685A
:10184000406920F0010021684861202084F83A00B6
:101850002046FFF71FFE002070BD0020FCE702209D
:10186000FAE700002DE9F0410446002520680569EB
:1018700025F44055E0680543206805612068C56887
:1018800049F20C6085432169A068084361690843F7
:10189000E169084305432068C5602068456925F46F
:1018A0004075A069054320684561E069B0F5004FC7
:1018B0007ED1C4492068884203D0C3492068884249
:1018C0005DD1FFF70BFA00EBC00101EB001061687E
:1018D0004900B0FBF1F06421B0FBF1F00601FFF725
:1018E000FDF900EBC00101EB001061684900B0FB9D
:1018F000F1F7FFF7F3F900EBC00101EB00106168AD
:101900004900B0FBF1F06421B0FBF1F000EBC00145
:1019100001EB0010A7EB8000322101EBC000642135
:10192000B0FBF1F000F0F80006EB4006FFF7D6F947
:1019300000EBC00101EB001061684900B0FBF1F75A
:10194000FFF7CCF900EBC00101EB00106168490022
:10195000B0FBF1F06421B0FBF1F000EBC00101EB52
:101960000010A7EB8000322101EBC0006421B0FB26
:10197000F1F000F0070030442168886020E1FFF7B3
:1019800097F900EBC00101EB001061684900B0FB62
:10199000F1F06421B0FBF1F00601FFF789F900EBEB
:1019A000C00101EB001061684900B0FBF1F700E0F5
:1019B00045E0FFF77DF900EBC00101EB0010616825
:1019C0004900B0FBF1F06421B0FBF1F000EBC00185
:1019D00001EB0010A7EB8000322101EBC000642175
:1019E000B0FBF1F000F0F80006EB4006FFF760F9FD
:1019F00000EBC00101EB001061684900B0FBF1F79A
:101A0000FFF756F900EBC00101EB001061684900D7
:101A1000B0FBF1F06421B0FBF1F000EBC00101EB91
:101A20000010A7EB8000322101EBC0006421B0FB65
:101A3000F1F000F00700304421688860C0E061499F
:101A40002068884203D06049206888425CD1FFF753
:101A500045F900EBC00101EB001061688900B0FBA3
:101A6000F1F6FFF73BF900EBC00101EB00106168F4
:101A70008900B0FBF1F06421B0FBF1F000EBC00194
:101A800001EB0010A6EB8000322101EB0010642175
:101A9000B0FBF1F000F0F006FFF720F900EBC00119
:101AA00001EB001061688900B0FBF1F06421B0FB2C
:101AB000F1F006EB0016FFF711F900EBC00101EBA6
:101AC000001061688900B0FBF1F7FFF707F900EB40
:101AD000C00101EB001061688900B0FBF1F06421E6
:101AE000B0FBF1F000EBC00101EB0010A7EB8000B0
:101AF000322101EB00106421B0FBF1F000F00F0087
:101B00003044216888605BE0FFF7D2F800EBC00149
:101B100001EB001061688900B0FBF1F6FFF7C8F82F
:101B200000EBC00101EB001061688900B0FBF1F02F
:101B30006421B0FBF1F000EBC00101EB0010A6EB5B
:101B40008000322101EB00106421B0FBF1F000F0C5
:101B5000F006FFF7ADF800EBC00101EB0010616883
:101B60008900B0FBF1F06421B0FBF1F006EB001648
:101B7000FFF79EF800EBC00101EB001061688900DF
:101B8000B0FBF1F7FFF794F800EBC00101EB001098
:101B900061688900B0FBF1F06421B0FBF1F000EB6B
:101BA000C00101EB0010A7EB8000322101EB001017
:101BB0006421B0FBF1F000F00F0030442168886030
:101BC000BDE8F0810010014000140140014691F889
:101BD000390021282CD18868B0F5805F0FD10A6ABE
:101BE0001088C0F308000B685860086918B9086AC3
:101BF000801C086209E0086A401C086205E00B6A64
:101C0000581C086218780B685860C88C401E80B257
:101C1000C88458B90868C06820F080000B68D86094
:101C20000868C06840F040000B68D860002070472A
:101C30000220FCE700BFFEE700BFFEE702E008C8A5
:101C4000121F08C1002AFAD170477047002001E036
:101C500001C1121F002AFBD1704770B504460D4622
:101C600000262878216B08756978206B4175A97862
:101C7000206B8175E978206BC1752979206B01761D
:101C80006979206B4176A979206B8176E979206B9F
:101C9000C1764FF4C8712046FEF7D2FB06463046A7
:101CA00070BD2DE9F04104460E4615460027287800
:101CB0004042216B087568784042C1B2206B417583
:101CC000A978206B8175E978206BC1752979206B23
:101CD00001766979206B4176A979206B8176E97963
:101CE000206BC1764FF4C8712046FEF7A9FB07466A
:101CF0003046FEF715FD3846BDE8F08110B50446C4
:101D0000E820216B08752821206B4175F121206B9B
:101D10008175F621206BC1750021206B0176206B47
:101D20004176206B8176206BC1764FF4C8712046D6
:101D3000FEF786FB10BD10B50446E820216B087540
:101D40000821206B4175F121206B8175D621206B14
:101D5000C1750021206B0176206B4176206B817666
:101D6000206BC1764FF4C8712046FEF769FB10BDA9
:101D7000DF21017023214170E82181702321C1708E
:101D80000021017141718171C1717047E8210170B9
:101D900023214170DF2181702321C1700021017155
:101DA00041718171C17170470146002002E000223B
:101DB0000A54401C0828FADB70470F2101700A21E1
:101DC0004170E82181700821C170002101714171C9
:101DD0008171C1717047E8210170082141700F21A4
:101DE00081700A21C1700021017141718171C1713D
:101DF0007047E821017004214170E82181700421BD
:101E0000C1700021017141718171C1717047EF2171
:101E1000017005214170EF2181700521C170002101
:101E2000017141718171C171704770B504460D46F1
:101E300028784042216B087568784042C1B2206B17
:101E40004175A978206B8175E978206BC175297976
:101E5000206B01766979206B4176A979206B8176B8
:101E6000E979206BC1764FF4C8712046FEF7E8FA95
:101E700070BD70B504460D462878216B08756978E9
:101E8000206B4175A978206B8175E978206BC1754D
:101E90002979206B01766979206B4176A979206BCD
:101EA0008176E979206BC1764FF4C8712046FEF740
:101EB000C7FA70BD70B504460D4628784042216BC4
:101EC000087568784042C1B2206B4175A8784042DD
:101ED000C1B2206B8175E8784042C1B2206BC175F8
:101EE0002979206B01766979206B4176A979206B7D
:101EF0008176E979206BC1764FF4C8712046FEF7F0
:101F00009FFA70BD70B504460D462878216B0875A0
:101F10006978206B4175A978206B8175E978206B11
:101F2000C1752979206B01766979206B4176A97991
:101F3000206B8176E979206BC1764FF4C871204619
:101F4000FEF77EFA70BD000008B500BF00200090CB
:101F50001048006840F010000E490860084600680C
:101F600000F01000009000BF00BF40200A49086048
:101F70000A484860002088600320C8600848FEF7CF
:101F8000DFFB002202211720FEF752FD1720FEF78B
:101F900042FD08BD30380240E00000200000111072
:101FA0000010024038B5044600BF002000901148E0
:101FB000006840F400200F4908600846006800F4FB
:101FC0000020009000BF00BF0B4820604FF4E130BC
:101FD00060600021A160E16021610C21616100214C
:101FE000A1612046FFF7EAF918B1252103A0FFF708
:101FF00023FE38BD40380240004C00402E2E5C537A
:1020000072635C756172742E6300000010B500226B
:1020100002213420FEF70CFD3420FEF7FCFC10BD3D
:1020200038B5044600BF002000901448006840F016
:102030000400124908600846006800F0040000909F
:1020400000BF00BF08152060022060600020A06073
:10205000E0600820206121460948FEF771FB4FF43B
:1020600000602060022060600020A060E060082026
:10207000206121460248FEF763FB38BD303802403C
:102080000008024088B0FEF769FCFFF76FFAFFF71F
:1020900031FAFFF703FAFFF757FF71497148FFF76D
:1020A0005DFB7148FFF780FE7048FFF794FE7048B3
:1020B000FFF783FE6F48FFF79CFE6F48FFF7A7FE10
:1020C00001A86E4908630420096B886000206B49F1
:1020D000096B086042F601206849096B48600020DE
:1020E0006649096BC86008206449096B08610122D0
:1020F00063495B48FFF79CF95B496048FFF7ADFD1A
:102100005A4800F0DFF859495C48FFF7FBFE41F2FE
:102110008830FEF705FB554800F0E3F8534957486F
:10212000FFF7F0FE41F28830FEF7FAFA4F4800F070
:10213000C9F84E495148FFF7E5FE8FE05148006865
:1021400001280BD1801E4F49086047484E4B484A32
:1021500046490090494800F0D1F87FE049480068BE
:10216000022807D1C01E4749086040494348FFF78D
:10217000C9FE73E043480068032807D1001F4149A6
:1021800008603D493D48FFF795FE67E03D4800681F
:10219000042807D1401F3B49086036493748FFF7FC
:1021A00068FE5BE037480068052807D1801F354985
:1021B00008602D493148FFF750FD4FE03148006875
:1021C000062807D1C01F2F49086029492B48FFF76F
:1021D0002CFE43E02B480068072807D14FF0FF3062
:1021E000284908602548FFF7A6FD37E02548006824
:1021F000082807D14FF0FF30224908601F48FFF739
:102200007DFD2BE01F48006809280AD14FF0FF3000
:102210001C490860164800F0D5F9144800F0E0F9B0
:102220001CE0184800680A280AD14FF0FF30154911
:1022300008600F4800F02AF80C4800F035F80DE06F
:10224000104800680B2809D14FF0FF300D49086095
:102250000748FFF78DFD0548FFF798FD6EE7000082
:102260008C000020CC000020050000200D00002084
:1022700015000020250000202D000020480000202F
:1022800035000020400000201D0000200F210170BB
:102290000A214170E82181700821C170002101717B
:1022A00041718171C1717047E8210170082141704D
:1022B000E82181700821C170002101714171817193
:1022C000C1717047E82101700821417000218170BF
:1022D000C170FF2101710521417100218171C1711E
:1022E0007047002101704170E82181700821C170A0
:1022F0000021017141718171C17170472DE9F04177
:1023000006460C4617461D46DDF81880224641F267
:102310007071304600F05AF820B14FF48B7124A050
:10232000FFF78AFC43462A469FED270A2D213046B7
:1023300000F07AF83A4641F64C513046FFF7B1FCCE
:1023400020B140F21B111AA0FFF776FC43462A4643
:102350009FED1D0A4B21304600F0CAF8224641F29B
:102360007071304600F032F820B14FF4907110A037
:10237000FFF762FC43462A469FED130A412130468F
:1023800000F0B6F83A4641F64C513046FFF789FC6A
:1023900020B140F2251106A0FFF74EFC43462A4625
:1023A0009FED090A3721304600F03EF8BDE8F08184
:1023B0002E2E5C5372635C726F626F74436F6E7427
:1023C000726F6C2E63000000CDCCCC3D2DE9F04146
:1023D00004460E46154600272878216B0875697853
:1023E000206B4175A8784042C1B2206B8175E878B6
:1023F0004042C1B2206BC1752979206B01766979A1
:10240000206B4176A979206B8176E979206BC176C2
:102410004FF4C8712046FEF713F807463046FEF722
:102420007FF93846BDE8F0812DE9F0472DED028BAC
:1024300004460E46B0EE408A15469946002E03DA51
:10244000B1EE480AB0EE408ADFED258A88EE880AB0
:10245000DFED240A20EE200A9FED231AC0EE010AC8
:1024600000EE106AB8EEC00A20EE800ABDEEC00A87
:1024700010EE107A9FED1D0A28EE000ABDEEC00A8C
:1024800010EE100A0FFA80F885F800804FEA182045
:1024900068702878216B08756978206B41752978F8
:1024A000206B81756978206BC1750021206B0176E6
:1024B000206B4176206B8176206BC1764FF4C8711A
:1024C0002046FDF7BDFF82463846FEF729F949460A
:1024D0002046FFF7C2FBBDEC028BBDE8F087000091
:1024E000D42B653E00007A440000B44200401C46F4
:1024F0002DE9F0472DED028B04460E46B0EE408AE2
:1025000015469946002E03DAB1EE480AB0EE408A2D
:10251000DFED288A88EE880ADFED270A20EE200A00
:102520009FED261AC0EE010A00EE106AB8EEC00A4E
:1025300020EE800ABDEEC00A10EE107A9FED200A50
:1025400028EE000ABDEEC00A10EE100A0FFA80F85D
:1025500085F800804FEA1820687028784042216B87
:10256000087568784042C1B2206B417528784042B6
:10257000C1B2206B817568784042C1B2206BC175D1
:102580000021206B0176206B4176206B8176206BD9
:10259000C1764FF4C8712046FDF752FF8246384697
:1025A000FEF7BEF849462046FFF757FBBDEC028B0D
:1025B000BDE8F087D42B653E00007A440000B442A9
:1025C00000401C46FF21017004214170E821817008
:1025D0000321C1700021017141718171C171704786
:1025E000E821017003214170FF2181700421C17035
:1025F0000021017141718171C171704700000000BB
:1026000000000000010203040607080900000000A2
:1026100001020304342600080000002048000000E6
:102620003C1C00087C26000848000020B004000084
:102630004C1C00080000000000000000000000002A
:10264000000000000000000000000000000000008A
:10265000000000000000000000000000000000007A
:10266000000000000000000000000000000000006A
:0C26700000000000000000000024F40046
:040000050800018965
:00000001FF
